{
  "contractName": "NftMarket",
  "abi": [
    {
      "inputs": [],
      "stateMutability": "nonpayable",
      "type": "constructor"
    },
    {
      "anonymous": false,
      "inputs": [
        {
          "indexed": true,
          "internalType": "address",
          "name": "owner",
          "type": "address"
        },
        {
          "indexed": true,
          "internalType": "address",
          "name": "approved",
          "type": "address"
        },
        {
          "indexed": true,
          "internalType": "uint256",
          "name": "tokenId",
          "type": "uint256"
        }
      ],
      "name": "Approval",
      "type": "event"
    },
    {
      "anonymous": false,
      "inputs": [
        {
          "indexed": true,
          "internalType": "address",
          "name": "owner",
          "type": "address"
        },
        {
          "indexed": true,
          "internalType": "address",
          "name": "operator",
          "type": "address"
        },
        {
          "indexed": false,
          "internalType": "bool",
          "name": "approved",
          "type": "bool"
        }
      ],
      "name": "ApprovalForAll",
      "type": "event"
    },
    {
      "anonymous": false,
      "inputs": [
        {
          "indexed": false,
          "internalType": "uint256",
          "name": "tokenId",
          "type": "uint256"
        },
        {
          "indexed": false,
          "internalType": "uint256",
          "name": "price",
          "type": "uint256"
        },
        {
          "indexed": false,
          "internalType": "address",
          "name": "creator",
          "type": "address"
        },
        {
          "indexed": false,
          "internalType": "bool",
          "name": "isListed",
          "type": "bool"
        }
      ],
      "name": "NftItemCreated",
      "type": "event"
    },
    {
      "anonymous": false,
      "inputs": [
        {
          "indexed": true,
          "internalType": "address",
          "name": "previousOwner",
          "type": "address"
        },
        {
          "indexed": true,
          "internalType": "address",
          "name": "newOwner",
          "type": "address"
        }
      ],
      "name": "OwnershipTransferred",
      "type": "event"
    },
    {
      "anonymous": false,
      "inputs": [
        {
          "indexed": true,
          "internalType": "address",
          "name": "from",
          "type": "address"
        },
        {
          "indexed": true,
          "internalType": "address",
          "name": "to",
          "type": "address"
        },
        {
          "indexed": true,
          "internalType": "uint256",
          "name": "tokenId",
          "type": "uint256"
        }
      ],
      "name": "Transfer",
      "type": "event"
    },
    {
      "inputs": [
        {
          "internalType": "address",
          "name": "to",
          "type": "address"
        },
        {
          "internalType": "uint256",
          "name": "tokenId",
          "type": "uint256"
        }
      ],
      "name": "approve",
      "outputs": [],
      "stateMutability": "nonpayable",
      "type": "function"
    },
    {
      "inputs": [
        {
          "internalType": "address",
          "name": "owner",
          "type": "address"
        }
      ],
      "name": "balanceOf",
      "outputs": [
        {
          "internalType": "uint256",
          "name": "",
          "type": "uint256"
        }
      ],
      "stateMutability": "view",
      "type": "function",
      "constant": true
    },
    {
      "inputs": [
        {
          "internalType": "uint256",
          "name": "tokenId",
          "type": "uint256"
        }
      ],
      "name": "getApproved",
      "outputs": [
        {
          "internalType": "address",
          "name": "",
          "type": "address"
        }
      ],
      "stateMutability": "view",
      "type": "function",
      "constant": true
    },
    {
      "inputs": [
        {
          "internalType": "address",
          "name": "owner",
          "type": "address"
        },
        {
          "internalType": "address",
          "name": "operator",
          "type": "address"
        }
      ],
      "name": "isApprovedForAll",
      "outputs": [
        {
          "internalType": "bool",
          "name": "",
          "type": "bool"
        }
      ],
      "stateMutability": "view",
      "type": "function",
      "constant": true
    },
    {
      "inputs": [],
      "name": "listingPrice",
      "outputs": [
        {
          "internalType": "uint256",
          "name": "",
          "type": "uint256"
        }
      ],
      "stateMutability": "view",
      "type": "function",
      "constant": true
    },
    {
      "inputs": [],
      "name": "name",
      "outputs": [
        {
          "internalType": "string",
          "name": "",
          "type": "string"
        }
      ],
      "stateMutability": "view",
      "type": "function",
      "constant": true
    },
    {
      "inputs": [],
      "name": "owner",
      "outputs": [
        {
          "internalType": "address",
          "name": "",
          "type": "address"
        }
      ],
      "stateMutability": "view",
      "type": "function",
      "constant": true
    },
    {
      "inputs": [
        {
          "internalType": "uint256",
          "name": "tokenId",
          "type": "uint256"
        }
      ],
      "name": "ownerOf",
      "outputs": [
        {
          "internalType": "address",
          "name": "",
          "type": "address"
        }
      ],
      "stateMutability": "view",
      "type": "function",
      "constant": true
    },
    {
      "inputs": [],
      "name": "renounceOwnership",
      "outputs": [],
      "stateMutability": "nonpayable",
      "type": "function"
    },
    {
      "inputs": [
        {
          "internalType": "address",
          "name": "from",
          "type": "address"
        },
        {
          "internalType": "address",
          "name": "to",
          "type": "address"
        },
        {
          "internalType": "uint256",
          "name": "tokenId",
          "type": "uint256"
        }
      ],
      "name": "safeTransferFrom",
      "outputs": [],
      "stateMutability": "nonpayable",
      "type": "function"
    },
    {
      "inputs": [
        {
          "internalType": "address",
          "name": "from",
          "type": "address"
        },
        {
          "internalType": "address",
          "name": "to",
          "type": "address"
        },
        {
          "internalType": "uint256",
          "name": "tokenId",
          "type": "uint256"
        },
        {
          "internalType": "bytes",
          "name": "_data",
          "type": "bytes"
        }
      ],
      "name": "safeTransferFrom",
      "outputs": [],
      "stateMutability": "nonpayable",
      "type": "function"
    },
    {
      "inputs": [
        {
          "internalType": "address",
          "name": "operator",
          "type": "address"
        },
        {
          "internalType": "bool",
          "name": "approved",
          "type": "bool"
        }
      ],
      "name": "setApprovalForAll",
      "outputs": [],
      "stateMutability": "nonpayable",
      "type": "function"
    },
    {
      "inputs": [
        {
          "internalType": "bytes4",
          "name": "interfaceId",
          "type": "bytes4"
        }
      ],
      "name": "supportsInterface",
      "outputs": [
        {
          "internalType": "bool",
          "name": "",
          "type": "bool"
        }
      ],
      "stateMutability": "view",
      "type": "function",
      "constant": true
    },
    {
      "inputs": [],
      "name": "symbol",
      "outputs": [
        {
          "internalType": "string",
          "name": "",
          "type": "string"
        }
      ],
      "stateMutability": "view",
      "type": "function",
      "constant": true
    },
    {
      "inputs": [
        {
          "internalType": "uint256",
          "name": "tokenId",
          "type": "uint256"
        }
      ],
      "name": "tokenURI",
      "outputs": [
        {
          "internalType": "string",
          "name": "",
          "type": "string"
        }
      ],
      "stateMutability": "view",
      "type": "function",
      "constant": true
    },
    {
      "inputs": [
        {
          "internalType": "address",
          "name": "from",
          "type": "address"
        },
        {
          "internalType": "address",
          "name": "to",
          "type": "address"
        },
        {
          "internalType": "uint256",
          "name": "tokenId",
          "type": "uint256"
        }
      ],
      "name": "transferFrom",
      "outputs": [],
      "stateMutability": "nonpayable",
      "type": "function"
    },
    {
      "inputs": [
        {
          "internalType": "address",
          "name": "newOwner",
          "type": "address"
        }
      ],
      "name": "transferOwnership",
      "outputs": [],
      "stateMutability": "nonpayable",
      "type": "function"
    },
    {
      "inputs": [
        {
          "internalType": "uint256",
          "name": "newPrice",
          "type": "uint256"
        }
      ],
      "name": "setListingPrice",
      "outputs": [],
      "stateMutability": "nonpayable",
      "type": "function"
    },
    {
      "inputs": [
        {
          "internalType": "uint256",
          "name": "tokenId",
          "type": "uint256"
        }
      ],
      "name": "getNftItem",
      "outputs": [
        {
          "components": [
            {
              "internalType": "uint256",
              "name": "tokenId",
              "type": "uint256"
            },
            {
              "internalType": "uint256",
              "name": "price",
              "type": "uint256"
            },
            {
              "internalType": "address",
              "name": "creator",
              "type": "address"
            },
            {
              "internalType": "bool",
              "name": "isListed",
              "type": "bool"
            }
          ],
          "internalType": "struct NftMarket.NftItem",
          "name": "",
          "type": "tuple"
        }
      ],
      "stateMutability": "view",
      "type": "function",
      "constant": true
    },
    {
      "inputs": [],
      "name": "listedItemsCount",
      "outputs": [
        {
          "internalType": "uint256",
          "name": "",
          "type": "uint256"
        }
      ],
      "stateMutability": "view",
      "type": "function",
      "constant": true
    },
    {
      "inputs": [
        {
          "internalType": "string",
          "name": "tokenURI",
          "type": "string"
        }
      ],
      "name": "tokenURIExists",
      "outputs": [
        {
          "internalType": "bool",
          "name": "",
          "type": "bool"
        }
      ],
      "stateMutability": "view",
      "type": "function",
      "constant": true
    },
    {
      "inputs": [],
      "name": "totalSupply",
      "outputs": [
        {
          "internalType": "uint256",
          "name": "",
          "type": "uint256"
        }
      ],
      "stateMutability": "view",
      "type": "function",
      "constant": true
    },
    {
      "inputs": [
        {
          "internalType": "uint256",
          "name": "index",
          "type": "uint256"
        }
      ],
      "name": "tokenByIndex",
      "outputs": [
        {
          "internalType": "uint256",
          "name": "",
          "type": "uint256"
        }
      ],
      "stateMutability": "view",
      "type": "function",
      "constant": true
    },
    {
      "inputs": [
        {
          "internalType": "address",
          "name": "owner",
          "type": "address"
        },
        {
          "internalType": "uint256",
          "name": "index",
          "type": "uint256"
        }
      ],
      "name": "tokenOfOwnerByIndex",
      "outputs": [
        {
          "internalType": "uint256",
          "name": "",
          "type": "uint256"
        }
      ],
      "stateMutability": "view",
      "type": "function",
      "constant": true
    },
    {
      "inputs": [],
      "name": "getAllNftsOnSale",
      "outputs": [
        {
          "components": [
            {
              "internalType": "uint256",
              "name": "tokenId",
              "type": "uint256"
            },
            {
              "internalType": "uint256",
              "name": "price",
              "type": "uint256"
            },
            {
              "internalType": "address",
              "name": "creator",
              "type": "address"
            },
            {
              "internalType": "bool",
              "name": "isListed",
              "type": "bool"
            }
          ],
          "internalType": "struct NftMarket.NftItem[]",
          "name": "",
          "type": "tuple[]"
        }
      ],
      "stateMutability": "view",
      "type": "function",
      "constant": true
    },
    {
      "inputs": [],
      "name": "getOwnedNfts",
      "outputs": [
        {
          "components": [
            {
              "internalType": "uint256",
              "name": "tokenId",
              "type": "uint256"
            },
            {
              "internalType": "uint256",
              "name": "price",
              "type": "uint256"
            },
            {
              "internalType": "address",
              "name": "creator",
              "type": "address"
            },
            {
              "internalType": "bool",
              "name": "isListed",
              "type": "bool"
            }
          ],
          "internalType": "struct NftMarket.NftItem[]",
          "name": "",
          "type": "tuple[]"
        }
      ],
      "stateMutability": "view",
      "type": "function",
      "constant": true
    },
    {
      "inputs": [
        {
          "internalType": "string",
          "name": "tokenURI",
          "type": "string"
        },
        {
          "internalType": "uint256",
          "name": "price",
          "type": "uint256"
        }
      ],
      "name": "mintToken",
      "outputs": [
        {
          "internalType": "uint256",
          "name": "",
          "type": "uint256"
        }
      ],
      "stateMutability": "payable",
      "type": "function",
      "payable": true
    },
    {
      "inputs": [
        {
          "internalType": "uint256",
          "name": "tokenId",
          "type": "uint256"
        }
      ],
      "name": "buyNft",
      "outputs": [],
      "stateMutability": "payable",
      "type": "function",
      "payable": true
    },
    {
      "inputs": [
        {
          "internalType": "uint256",
          "name": "tokenId",
          "type": "uint256"
        },
        {
          "internalType": "uint256",
          "name": "newPrice",
          "type": "uint256"
        }
      ],
      "name": "placeNftOnSale",
      "outputs": [],
      "stateMutability": "payable",
      "type": "function",
      "payable": true
    }
  ],
  "bytecode": "0x60806040526658d15e176280006008553480156200001c57600080fd5b506040518060400160405280600d81526020017f536869682d56657273654e4654000000000000000000000000000000000000008152506040518060400160405280600781526020017f534849484e4654000000000000000000000000000000000000000000000000008152508160009080519060200190620000a1929190620001b1565b508060019080519060200190620000ba929190620001b1565b505050620000dd620000d1620000e360201b60201c565b620000eb60201b60201c565b620002c6565b600033905090565b6000600760009054906101000a900473ffffffffffffffffffffffffffffffffffffffff16905081600760006101000a81548173ffffffffffffffffffffffffffffffffffffffff021916908373ffffffffffffffffffffffffffffffffffffffff1602179055508173ffffffffffffffffffffffffffffffffffffffff168173ffffffffffffffffffffffffffffffffffffffff167f8be0079c531659141344cd1fd0a4f28419497f9722a3daafe3b4186f6b6457e060405160405180910390a35050565b828054620001bf9062000290565b90600052602060002090601f016020900481019282620001e357600085556200022f565b82601f10620001fe57805160ff19168380011785556200022f565b828001600101855582156200022f579182015b828111156200022e57825182559160200191906001019062000211565b5b5090506200023e919062000242565b5090565b5b808211156200025d57600081600090555060010162000243565b5090565b7f4e487b7100000000000000000000000000000000000000000000000000000000600052602260045260246000fd5b60006002820490506001821680620002a957607f821691505b60208210811415620002c057620002bf62000261565b5b50919050565b614acf80620002d66000396000f3fe6080604052600436106101c25760003560e01c80636f1a0af5116100f7578063a22cb46511610095578063c87b56dd11610064578063c87b56dd14610651578063ccb4918d1461068e578063e985e9c5146106b9578063f2fde38b146106f6576101c2565b8063a22cb465146105a4578063b88d4fde146105cd578063c046372c146105f6578063c78f19f914610626576101c2565b8063715018a6116100d1578063715018a61461050e5780637c726b69146105255780638da5cb5b1461054e57806395d89b4114610579576101c2565b80636f1a0af51461046957806370a08231146104a657806370cbcb43146104e3576101c2565b8063243adbdd1161016457806342842e0e1161013e57806342842e0e1461038957806343d32ae7146103b25780634f6ccce7146103ef5780636352211e1461042c576101c2565b8063243adbdd146103055780632f745c591461032157806336b536be1461035e576101c2565b8063095ea7b3116101a0578063095ea7b31461026c57806318160ddd1461029557806321f422e5146102c057806323b872dd146102dc576101c2565b806301ffc9a7146101c757806306fdde0314610204578063081812fc1461022f575b600080fd5b3480156101d357600080fd5b506101ee60048036038101906101e99190612fd8565b61071f565b6040516101fb9190613020565b60405180910390f35b34801561021057600080fd5b50610219610801565b60405161022691906130d4565b60405180910390f35b34801561023b57600080fd5b506102566004803603810190610251919061312c565b610893565b604051610263919061319a565b60405180910390f35b34801561027857600080fd5b50610293600480360381019061028e91906131e1565b610918565b005b3480156102a157600080fd5b506102aa610a30565b6040516102b79190613230565b60405180910390f35b6102da60048036038101906102d5919061324b565b610a3d565b005b3480156102e857600080fd5b5061030360048036038101906102fe919061328b565b610bb9565b005b61031f600480360381019061031a919061312c565b610c19565b005b34801561032d57600080fd5b50610348600480360381019061034391906131e1565b610d82565b6040516103559190613230565b60405180910390f35b34801561036a57600080fd5b50610373610e27565b604051610380919061340f565b60405180910390f35b34801561039557600080fd5b506103b060048036038101906103ab919061328b565b610fc2565b005b3480156103be57600080fd5b506103d960048036038101906103d49190613566565b610fe2565b6040516103e69190613020565b60405180910390f35b3480156103fb57600080fd5b506104166004803603810190610411919061312c565b61101e565b6040516104239190613230565b60405180910390f35b34801561043857600080fd5b50610453600480360381019061044e919061312c565b61108f565b604051610460919061319a565b60405180910390f35b34801561047557600080fd5b50610490600480360381019061048b919061312c565b611141565b60405161049d9190613604565b60405180910390f35b3480156104b257600080fd5b506104cd60048036038101906104c8919061361f565b6111f3565b6040516104da9190613230565b60405180910390f35b3480156104ef57600080fd5b506104f86112ab565b604051610505919061340f565b60405180910390f35b34801561051a57600080fd5b5061052361140f565b005b34801561053157600080fd5b5061054c6004803603810190610547919061312c565b611497565b005b34801561055a57600080fd5b50610563611560565b604051610570919061319a565b60405180910390f35b34801561058557600080fd5b5061058e61158a565b60405161059b91906130d4565b60405180910390f35b3480156105b057600080fd5b506105cb60048036038101906105c69190613678565b61161c565b005b3480156105d957600080fd5b506105f460048036038101906105ef9190613759565b611632565b005b610610600480360381019061060b91906137dc565b611694565b60405161061d9190613230565b60405180910390f35b34801561063257600080fd5b5061063b6117a4565b6040516106489190613230565b60405180910390f35b34801561065d57600080fd5b506106786004803603810190610673919061312c565b6117aa565b60405161068591906130d4565b60405180910390f35b34801561069a57600080fd5b506106a36118fc565b6040516106b09190613230565b60405180910390f35b3480156106c557600080fd5b506106e060048036038101906106db9190613838565b61190d565b6040516106ed9190613020565b60405180910390f35b34801561070257600080fd5b5061071d6004803603810190610718919061361f565b6119a1565b005b60007f80ac58cd000000000000000000000000000000000000000000000000000000007bffffffffffffffffffffffffffffffffffffffffffffffffffffffff1916827bffffffffffffffffffffffffffffffffffffffffffffffffffffffff191614806107ea57507f5b5e139f000000000000000000000000000000000000000000000000000000007bffffffffffffffffffffffffffffffffffffffffffffffffffffffff1916827bffffffffffffffffffffffffffffffffffffffffffffffffffffffff1916145b806107fa57506107f982611a99565b5b9050919050565b606060008054610810906138a7565b80601f016020809104026020016040519081016040528092919081815260200182805461083c906138a7565b80156108895780601f1061085e57610100808354040283529160200191610889565b820191906000526020600020905b81548152906001019060200180831161086c57829003601f168201915b5050505050905090565b600061089e82611b03565b6108dd576040517f08c379a00000000000000000000000000000000000000000000000000000000081526004016108d49061394b565b60405180910390fd5b6004600083815260200190815260200160002060009054906101000a900473ffffffffffffffffffffffffffffffffffffffff169050919050565b60006109238261108f565b90508073ffffffffffffffffffffffffffffffffffffffff168373ffffffffffffffffffffffffffffffffffffffff161415610994576040517f08c379a000000000000000000000000000000000000000000000000000000000815260040161098b906139dd565b60405180910390fd5b8073ffffffffffffffffffffffffffffffffffffffff166109b3611b6f565b73ffffffffffffffffffffffffffffffffffffffff1614806109e257506109e1816109dc611b6f565b61190d565b5b610a21576040517f08c379a0000000000000000000000000000000000000000000000000000000008152600401610a1890613a6f565b60405180910390fd5b610a2b8383611b77565b505050565b6000600f80549050905090565b3373ffffffffffffffffffffffffffffffffffffffff16610a5d8361108f565b73ffffffffffffffffffffffffffffffffffffffff1614610ab3576040517f08c379a0000000000000000000000000000000000000000000000000000000008152600401610aaa90613adb565b60405180910390fd5b60001515600c600084815260200190815260200160002060020160149054906101000a900460ff16151514610b1d576040517f08c379a0000000000000000000000000000000000000000000000000000000008152600401610b1490613b47565b60405180910390fd5b6008543414610b61576040517f08c379a0000000000000000000000000000000000000000000000000000000008152600401610b5890613bd9565b60405180910390fd5b6001600c600084815260200190815260200160002060020160146101000a81548160ff02191690831515021790555080600c600084815260200190815260200160002060010181905550610bb56009611c30565b5050565b610bca610bc4611b6f565b82611c46565b610c09576040517f08c379a0000000000000000000000000000000000000000000000000000000008152600401610c0090613c6b565b60405180910390fd5b610c14838383611d24565b505050565b6000600c60008381526020019081526020016000206001015490506000610c3f8361108f565b90508073ffffffffffffffffffffffffffffffffffffffff163373ffffffffffffffffffffffffffffffffffffffff161415610cb0576040517f08c379a0000000000000000000000000000000000000000000000000000000008152600401610ca790613cd7565b60405180910390fd5b813414610cf2576040517f08c379a0000000000000000000000000000000000000000000000000000000008152600401610ce990613d43565b60405180910390fd5b6000600c600085815260200190815260200160002060020160146101000a81548160ff021916908315150217905550610d2b6009611f8b565b610d36813385611d24565b8073ffffffffffffffffffffffffffffffffffffffff166108fc349081150290604051600060405180830381858888f19350505050158015610d7c573d6000803e3d6000fd5b50505050565b6000610d8d836111f3565b8210610dce576040517f08c379a0000000000000000000000000000000000000000000000000000000008152600401610dc590613daf565b60405180910390fd5b600d60008473ffffffffffffffffffffffffffffffffffffffff1673ffffffffffffffffffffffffffffffffffffffff168152602001908152602001600020600083815260200190815260200160002054905092915050565b60606000610e33610a30565b9050600080610e426009611fe7565b67ffffffffffffffff811115610e5b57610e5a61343b565b5b604051908082528060200260200182016040528015610e9457816020015b610e81612e89565b815260200190600190039081610e795790505b50905060005b83811015610fb8576000610ead8261101e565b90506000600c60008381526020019081526020016000209050600115158160020160149054906101000a900460ff1615151415610fa3578060405180608001604052908160008201548152602001600182015481526020016002820160009054906101000a900473ffffffffffffffffffffffffffffffffffffffff1673ffffffffffffffffffffffffffffffffffffffff1673ffffffffffffffffffffffffffffffffffffffff1681526020016002820160149054906101000a900460ff161515151581525050848681518110610f8857610f87613dcf565b5b6020026020010181905250600185610fa09190613e2d565b94505b50508080610fb090613e83565b915050610e9a565b5080935050505090565b610fdd83838360405180602001604052806000815250611632565b505050565b600060011515600b83604051610ff89190613f08565b908152602001604051809103902060009054906101000a900460ff161515149050919050565b6000611028610a30565b8210611069576040517f08c379a000000000000000000000000000000000000000000000000000000000815260040161106090613daf565b60405180910390fd5b600f828154811061107d5761107c613dcf565b5b90600052602060002001549050919050565b6000806002600084815260200190815260200160002060009054906101000a900473ffffffffffffffffffffffffffffffffffffffff169050600073ffffffffffffffffffffffffffffffffffffffff168173ffffffffffffffffffffffffffffffffffffffff161415611138576040517f08c379a000000000000000000000000000000000000000000000000000000000815260040161112f90613f91565b60405180910390fd5b80915050919050565b611149612e89565b600c600083815260200190815260200160002060405180608001604052908160008201548152602001600182015481526020016002820160009054906101000a900473ffffffffffffffffffffffffffffffffffffffff1673ffffffffffffffffffffffffffffffffffffffff1673ffffffffffffffffffffffffffffffffffffffff1681526020016002820160149054906101000a900460ff1615151515815250509050919050565b60008073ffffffffffffffffffffffffffffffffffffffff168273ffffffffffffffffffffffffffffffffffffffff161415611264576040517f08c379a000000000000000000000000000000000000000000000000000000000815260040161125b90614023565b60405180910390fd5b600360008373ffffffffffffffffffffffffffffffffffffffff1673ffffffffffffffffffffffffffffffffffffffff168152602001908152602001600020549050919050565b606060006112b8336111f3565b905060008167ffffffffffffffff8111156112d6576112d561343b565b5b60405190808252806020026020018201604052801561130f57816020015b6112fc612e89565b8152602001906001900390816112f45790505b50905060005b828110156114065760006113293383610d82565b90506000600c600083815260200190815260200160002090508060405180608001604052908160008201548152602001600182015481526020016002820160009054906101000a900473ffffffffffffffffffffffffffffffffffffffff1673ffffffffffffffffffffffffffffffffffffffff1673ffffffffffffffffffffffffffffffffffffffff1681526020016002820160149054906101000a900460ff1615151515815250508484815181106113e6576113e5613dcf565b5b6020026020010181905250505080806113fe90613e83565b915050611315565b50809250505090565b611417611b6f565b73ffffffffffffffffffffffffffffffffffffffff16611435611560565b73ffffffffffffffffffffffffffffffffffffffff161461148b576040517f08c379a00000000000000000000000000000000000000000000000000000000081526004016114829061408f565b60405180910390fd5b6114956000611ff5565b565b61149f611b6f565b73ffffffffffffffffffffffffffffffffffffffff166114bd611560565b73ffffffffffffffffffffffffffffffffffffffff1614611513576040517f08c379a000000000000000000000000000000000000000000000000000000000815260040161150a9061408f565b60405180910390fd5b60008111611556576040517f08c379a000000000000000000000000000000000000000000000000000000000815260040161154d906140fb565b60405180910390fd5b8060088190555050565b6000600760009054906101000a900473ffffffffffffffffffffffffffffffffffffffff16905090565b606060018054611599906138a7565b80601f01602080910402602001604051908101604052809291908181526020018280546115c5906138a7565b80156116125780601f106115e757610100808354040283529160200191611612565b820191906000526020600020905b8154815290600101906020018083116115f557829003601f168201915b5050505050905090565b61162e611627611b6f565b83836120bb565b5050565b61164361163d611b6f565b83611c46565b611682576040517f08c379a000000000000000000000000000000000000000000000000000000000815260040161167990613c6b565b60405180910390fd5b61168e84848484612228565b50505050565b600061169f83610fe2565b156116df576040517f08c379a00000000000000000000000000000000000000000000000000000000081526004016116d690614167565b60405180910390fd5b6008543414611723576040517f08c379a000000000000000000000000000000000000000000000000000000000815260040161171a906141f9565b60405180910390fd5b61172d600a611c30565b6117376009611c30565b6000611743600a611fe7565b905061174f3382612284565b61175981856122a2565b6117638184612316565b6001600b856040516117759190613f08565b908152602001604051809103902060006101000a81548160ff0219169083151502179055508091505092915050565b60085481565b60606117b582611b03565b6117f4576040517f08c379a00000000000000000000000000000000000000000000000000000000081526004016117eb9061428b565b60405180910390fd5b6000600660008481526020019081526020016000208054611814906138a7565b80601f0160208091040260200160405190810160405280929190818152602001828054611840906138a7565b801561188d5780601f106118625761010080835404028352916020019161188d565b820191906000526020600020905b81548152906001019060200180831161187057829003601f168201915b50505050509050600061189e612466565b90506000815114156118b45781925050506118f7565b6000825111156118e95780826040516020016118d19291906142ab565b604051602081830303815290604052925050506118f7565b6118f28461247d565b925050505b919050565b60006119086009611fe7565b905090565b6000600560008473ffffffffffffffffffffffffffffffffffffffff1673ffffffffffffffffffffffffffffffffffffffff16815260200190815260200160002060008373ffffffffffffffffffffffffffffffffffffffff1673ffffffffffffffffffffffffffffffffffffffff16815260200190815260200160002060009054906101000a900460ff16905092915050565b6119a9611b6f565b73ffffffffffffffffffffffffffffffffffffffff166119c7611560565b73ffffffffffffffffffffffffffffffffffffffff1614611a1d576040517f08c379a0000000000000000000000000000000000000000000000000000000008152600401611a149061408f565b60405180910390fd5b600073ffffffffffffffffffffffffffffffffffffffff168173ffffffffffffffffffffffffffffffffffffffff161415611a8d576040517f08c379a0000000000000000000000000000000000000000000000000000000008152600401611a8490614341565b60405180910390fd5b611a9681611ff5565b50565b60007f01ffc9a7000000000000000000000000000000000000000000000000000000007bffffffffffffffffffffffffffffffffffffffffffffffffffffffff1916827bffffffffffffffffffffffffffffffffffffffffffffffffffffffff1916149050919050565b60008073ffffffffffffffffffffffffffffffffffffffff166002600084815260200190815260200160002060009054906101000a900473ffffffffffffffffffffffffffffffffffffffff1673ffffffffffffffffffffffffffffffffffffffff1614159050919050565b600033905090565b816004600083815260200190815260200160002060006101000a81548173ffffffffffffffffffffffffffffffffffffffff021916908373ffffffffffffffffffffffffffffffffffffffff160217905550808273ffffffffffffffffffffffffffffffffffffffff16611bea8361108f565b73ffffffffffffffffffffffffffffffffffffffff167f8c5be1e5ebec7d5bd14f71427d1e84f3dd0314c0f7b2291e5b200ac8c7c3b92560405160405180910390a45050565b6001816000016000828254019250508190555050565b6000611c5182611b03565b611c90576040517f08c379a0000000000000000000000000000000000000000000000000000000008152600401611c87906143d3565b60405180910390fd5b6000611c9b8361108f565b90508073ffffffffffffffffffffffffffffffffffffffff168473ffffffffffffffffffffffffffffffffffffffff161480611cdd5750611cdc818561190d565b5b80611d1b57508373ffffffffffffffffffffffffffffffffffffffff16611d0384610893565b73ffffffffffffffffffffffffffffffffffffffff16145b91505092915050565b8273ffffffffffffffffffffffffffffffffffffffff16611d448261108f565b73ffffffffffffffffffffffffffffffffffffffff1614611d9a576040517f08c379a0000000000000000000000000000000000000000000000000000000008152600401611d9190614465565b60405180910390fd5b600073ffffffffffffffffffffffffffffffffffffffff168273ffffffffffffffffffffffffffffffffffffffff161415611e0a576040517f08c379a0000000000000000000000000000000000000000000000000000000008152600401611e01906144f7565b60405180910390fd5b611e15838383612524565b611e20600082611b77565b6001600360008573ffffffffffffffffffffffffffffffffffffffff1673ffffffffffffffffffffffffffffffffffffffff1681526020019081526020016000206000828254611e709190614517565b925050819055506001600360008473ffffffffffffffffffffffffffffffffffffffff1673ffffffffffffffffffffffffffffffffffffffff1681526020019081526020016000206000828254611ec79190613e2d565b92505081905550816002600083815260200190815260200160002060006101000a81548173ffffffffffffffffffffffffffffffffffffffff021916908373ffffffffffffffffffffffffffffffffffffffff160217905550808273ffffffffffffffffffffffffffffffffffffffff168473ffffffffffffffffffffffffffffffffffffffff167fddf252ad1be2c89b69c2b068fc378daa952ba7f163c4a11628f55a4df523b3ef60405160405180910390a4611f86838383612638565b505050565b60008160000154905060008111611fd7576040517f08c379a0000000000000000000000000000000000000000000000000000000008152600401611fce90614597565b60405180910390fd5b6001810382600001819055505050565b600081600001549050919050565b6000600760009054906101000a900473ffffffffffffffffffffffffffffffffffffffff16905081600760006101000a81548173ffffffffffffffffffffffffffffffffffffffff021916908373ffffffffffffffffffffffffffffffffffffffff1602179055508173ffffffffffffffffffffffffffffffffffffffff168173ffffffffffffffffffffffffffffffffffffffff167f8be0079c531659141344cd1fd0a4f28419497f9722a3daafe3b4186f6b6457e060405160405180910390a35050565b8173ffffffffffffffffffffffffffffffffffffffff168373ffffffffffffffffffffffffffffffffffffffff16141561212a576040517f08c379a000000000000000000000000000000000000000000000000000000000815260040161212190614603565b60405180910390fd5b80600560008573ffffffffffffffffffffffffffffffffffffffff1673ffffffffffffffffffffffffffffffffffffffff16815260200190815260200160002060008473ffffffffffffffffffffffffffffffffffffffff1673ffffffffffffffffffffffffffffffffffffffff16815260200190815260200160002060006101000a81548160ff0219169083151502179055508173ffffffffffffffffffffffffffffffffffffffff168373ffffffffffffffffffffffffffffffffffffffff167f17307eab39ab6107e8899845ad3d59bd9653f200f220920489ca2b5937696c318360405161221b9190613020565b60405180910390a3505050565b612233848484611d24565b61223f8484848461263d565b61227e576040517f08c379a000000000000000000000000000000000000000000000000000000000815260040161227590614695565b60405180910390fd5b50505050565b61229e8282604051806020016040528060008152506127c5565b5050565b6122ab82611b03565b6122ea576040517f08c379a00000000000000000000000000000000000000000000000000000000081526004016122e190614727565b60405180910390fd5b80600660008481526020019081526020016000209080519060200190612311929190612ec9565b505050565b60008111612359576040517f08c379a0000000000000000000000000000000000000000000000000000000008152600401612350906140fb565b60405180910390fd5b60405180608001604052808381526020018281526020013373ffffffffffffffffffffffffffffffffffffffff16815260200160011515815250600c6000848152602001908152602001600020600082015181600001556020820151816001015560408201518160020160006101000a81548173ffffffffffffffffffffffffffffffffffffffff021916908373ffffffffffffffffffffffffffffffffffffffff16021790555060608201518160020160146101000a81548160ff0219169083151502179055509050507f470031062672bc0246e132c723a729c4676710ec663a29e86c88678032daddea828233600160405161245a9493929190614747565b60405180910390a15050565b606060405180602001604052806000815250905090565b606061248882611b03565b6124c7576040517f08c379a00000000000000000000000000000000000000000000000000000000081526004016124be906147fe565b60405180910390fd5b60006124d1612466565b905060008151116124f1576040518060200160405280600081525061251c565b806124fb84612820565b60405160200161250c9291906142ab565b6040516020818303038152906040525b915050919050565b61252f838383612981565b600073ffffffffffffffffffffffffffffffffffffffff168373ffffffffffffffffffffffffffffffffffffffff1614156125725761256d81612986565b6125b1565b8173ffffffffffffffffffffffffffffffffffffffff168373ffffffffffffffffffffffffffffffffffffffff16146125b0576125af83826129cf565b5b5b600073ffffffffffffffffffffffffffffffffffffffff168273ffffffffffffffffffffffffffffffffffffffff1614156125f4576125ef81612b3c565b612633565b8273ffffffffffffffffffffffffffffffffffffffff168273ffffffffffffffffffffffffffffffffffffffff1614612632576126318282612c0d565b5b5b505050565b505050565b600061265e8473ffffffffffffffffffffffffffffffffffffffff16612c8c565b156127b8578373ffffffffffffffffffffffffffffffffffffffff1663150b7a02612687611b6f565b8786866040518563ffffffff1660e01b81526004016126a99493929190614873565b6020604051808303816000875af19250505080156126e557506040513d601f19601f820116820180604052508101906126e291906148d4565b60015b612768573d8060008114612715576040519150601f19603f3d011682016040523d82523d6000602084013e61271a565b606091505b50600081511415612760576040517f08c379a000000000000000000000000000000000000000000000000000000000815260040161275790614695565b60405180910390fd5b805181602001fd5b63150b7a0260e01b7bffffffffffffffffffffffffffffffffffffffffffffffffffffffff1916817bffffffffffffffffffffffffffffffffffffffffffffffffffffffff1916149150506127bd565b600190505b949350505050565b6127cf8383612caf565b6127dc600084848461263d565b61281b576040517f08c379a000000000000000000000000000000000000000000000000000000000815260040161281290614695565b60405180910390fd5b505050565b60606000821415612868576040518060400160405280600181526020017f3000000000000000000000000000000000000000000000000000000000000000815250905061297c565b600082905060005b6000821461289a57808061288390613e83565b915050600a826128939190614930565b9150612870565b60008167ffffffffffffffff8111156128b6576128b561343b565b5b6040519080825280601f01601f1916602001820160405280156128e85781602001600182028036833780820191505090505b5090505b60008514612975576001826129019190614517565b9150600a856129109190614961565b603061291c9190613e2d565b60f81b81838151811061293257612931613dcf565b5b60200101907effffffffffffffffffffffffffffffffffffffffffffffffffffffffffffff1916908160001a905350600a8561296e9190614930565b94506128ec565b8093505050505b919050565b505050565b600f805490506010600083815260200190815260200160002081905550600f81908060018154018082558091505060019003906000526020600020016000909190919091505550565b600060016129dc846111f3565b6129e69190614517565b90506000600e6000848152602001908152602001600020549050818114612acb576000600d60008673ffffffffffffffffffffffffffffffffffffffff1673ffffffffffffffffffffffffffffffffffffffff168152602001908152602001600020600084815260200190815260200160002054905082600d60008773ffffffffffffffffffffffffffffffffffffffff1673ffffffffffffffffffffffffffffffffffffffff16815260200190815260200160002060008481526020019081526020016000208190555081600e600083815260200190815260200160002081905550505b600e600084815260200190815260200160002060009055600d60008573ffffffffffffffffffffffffffffffffffffffff1673ffffffffffffffffffffffffffffffffffffffff16815260200190815260200160002060008381526020019081526020016000206000905550505050565b60006001600f80549050612b509190614517565b90506000601060008481526020019081526020016000205490506000600f8381548110612b8057612b7f613dcf565b5b9060005260206000200154905080600f8381548110612ba257612ba1613dcf565b5b90600052602060002001819055508160106000838152602001908152602001600020819055506010600085815260200190815260200160002060009055600f805480612bf157612bf0614992565b5b6001900381819060005260206000200160009055905550505050565b6000612c18836111f3565b905081600d60008573ffffffffffffffffffffffffffffffffffffffff1673ffffffffffffffffffffffffffffffffffffffff16815260200190815260200160002060008381526020019081526020016000208190555080600e600084815260200190815260200160002081905550505050565b6000808273ffffffffffffffffffffffffffffffffffffffff163b119050919050565b600073ffffffffffffffffffffffffffffffffffffffff168273ffffffffffffffffffffffffffffffffffffffff161415612d1f576040517f08c379a0000000000000000000000000000000000000000000000000000000008152600401612d1690614a0d565b60405180910390fd5b612d2881611b03565b15612d68576040517f08c379a0000000000000000000000000000000000000000000000000000000008152600401612d5f90614a79565b60405180910390fd5b612d7460008383612524565b6001600360008473ffffffffffffffffffffffffffffffffffffffff1673ffffffffffffffffffffffffffffffffffffffff1681526020019081526020016000206000828254612dc49190613e2d565b92505081905550816002600083815260200190815260200160002060006101000a81548173ffffffffffffffffffffffffffffffffffffffff021916908373ffffffffffffffffffffffffffffffffffffffff160217905550808273ffffffffffffffffffffffffffffffffffffffff16600073ffffffffffffffffffffffffffffffffffffffff167fddf252ad1be2c89b69c2b068fc378daa952ba7f163c4a11628f55a4df523b3ef60405160405180910390a4612e8560008383612638565b5050565b60405180608001604052806000815260200160008152602001600073ffffffffffffffffffffffffffffffffffffffff1681526020016000151581525090565b828054612ed5906138a7565b90600052602060002090601f016020900481019282612ef75760008555612f3e565b82601f10612f1057805160ff1916838001178555612f3e565b82800160010185558215612f3e579182015b82811115612f3d578251825591602001919060010190612f22565b5b509050612f4b9190612f4f565b5090565b5b80821115612f68576000816000905550600101612f50565b5090565b6000604051905090565b600080fd5b600080fd5b60007fffffffff0000000000000000000000000000000000000000000000000000000082169050919050565b612fb581612f80565b8114612fc057600080fd5b50565b600081359050612fd281612fac565b92915050565b600060208284031215612fee57612fed612f76565b5b6000612ffc84828501612fc3565b91505092915050565b60008115159050919050565b61301a81613005565b82525050565b60006020820190506130356000830184613011565b92915050565b600081519050919050565b600082825260208201905092915050565b60005b8381101561307557808201518184015260208101905061305a565b83811115613084576000848401525b50505050565b6000601f19601f8301169050919050565b60006130a68261303b565b6130b08185613046565b93506130c0818560208601613057565b6130c98161308a565b840191505092915050565b600060208201905081810360008301526130ee818461309b565b905092915050565b6000819050919050565b613109816130f6565b811461311457600080fd5b50565b60008135905061312681613100565b92915050565b60006020828403121561314257613141612f76565b5b600061315084828501613117565b91505092915050565b600073ffffffffffffffffffffffffffffffffffffffff82169050919050565b600061318482613159565b9050919050565b61319481613179565b82525050565b60006020820190506131af600083018461318b565b92915050565b6131be81613179565b81146131c957600080fd5b50565b6000813590506131db816131b5565b92915050565b600080604083850312156131f8576131f7612f76565b5b6000613206858286016131cc565b925050602061321785828601613117565b9150509250929050565b61322a816130f6565b82525050565b60006020820190506132456000830184613221565b92915050565b6000806040838503121561326257613261612f76565b5b600061327085828601613117565b925050602061328185828601613117565b9150509250929050565b6000806000606084860312156132a4576132a3612f76565b5b60006132b2868287016131cc565b93505060206132c3868287016131cc565b92505060406132d486828701613117565b9150509250925092565b600081519050919050565b600082825260208201905092915050565b6000819050602082019050919050565b613313816130f6565b82525050565b61332281613179565b82525050565b61333181613005565b82525050565b60808201600082015161334d600085018261330a565b506020820151613360602085018261330a565b5060408201516133736040850182613319565b5060608201516133866060850182613328565b50505050565b60006133988383613337565b60808301905092915050565b6000602082019050919050565b60006133bc826132de565b6133c681856132e9565b93506133d1836132fa565b8060005b838110156134025781516133e9888261338c565b97506133f4836133a4565b9250506001810190506133d5565b5085935050505092915050565b6000602082019050818103600083015261342981846133b1565b905092915050565b600080fd5b600080fd5b7f4e487b7100000000000000000000000000000000000000000000000000000000600052604160045260246000fd5b6134738261308a565b810181811067ffffffffffffffff821117156134925761349161343b565b5b80604052505050565b60006134a5612f6c565b90506134b1828261346a565b919050565b600067ffffffffffffffff8211156134d1576134d061343b565b5b6134da8261308a565b9050602081019050919050565b82818337600083830152505050565b6000613509613504846134b6565b61349b565b90508281526020810184848401111561352557613524613436565b5b6135308482856134e7565b509392505050565b600082601f83011261354d5761354c613431565b5b813561355d8482602086016134f6565b91505092915050565b60006020828403121561357c5761357b612f76565b5b600082013567ffffffffffffffff81111561359a57613599612f7b565b5b6135a684828501613538565b91505092915050565b6080820160008201516135c5600085018261330a565b5060208201516135d8602085018261330a565b5060408201516135eb6040850182613319565b5060608201516135fe6060850182613328565b50505050565b600060808201905061361960008301846135af565b92915050565b60006020828403121561363557613634612f76565b5b6000613643848285016131cc565b91505092915050565b61365581613005565b811461366057600080fd5b50565b6000813590506136728161364c565b92915050565b6000806040838503121561368f5761368e612f76565b5b600061369d858286016131cc565b92505060206136ae85828601613663565b9150509250929050565b600067ffffffffffffffff8211156136d3576136d261343b565b5b6136dc8261308a565b9050602081019050919050565b60006136fc6136f7846136b8565b61349b565b90508281526020810184848401111561371857613717613436565b5b6137238482856134e7565b509392505050565b600082601f8301126137405761373f613431565b5b81356137508482602086016136e9565b91505092915050565b6000806000806080858703121561377357613772612f76565b5b6000613781878288016131cc565b9450506020613792878288016131cc565b93505060406137a387828801613117565b925050606085013567ffffffffffffffff8111156137c4576137c3612f7b565b5b6137d08782880161372b565b91505092959194509250565b600080604083850312156137f3576137f2612f76565b5b600083013567ffffffffffffffff81111561381157613810612f7b565b5b61381d85828601613538565b925050602061382e85828601613117565b9150509250929050565b6000806040838503121561384f5761384e612f76565b5b600061385d858286016131cc565b925050602061386e858286016131cc565b9150509250929050565b7f4e487b7100000000000000000000000000000000000000000000000000000000600052602260045260246000fd5b600060028204905060018216806138bf57607f821691505b602082108114156138d3576138d2613878565b5b50919050565b7f4552433732313a20617070726f76656420717565727920666f72206e6f6e657860008201527f697374656e7420746f6b656e0000000000000000000000000000000000000000602082015250565b6000613935602c83613046565b9150613940826138d9565b604082019050919050565b6000602082019050818103600083015261396481613928565b9050919050565b7f4552433732313a20617070726f76616c20746f2063757272656e74206f776e6560008201527f7200000000000000000000000000000000000000000000000000000000000000602082015250565b60006139c7602183613046565b91506139d28261396b565b604082019050919050565b600060208201905081810360008301526139f6816139ba565b9050919050565b7f4552433732313a20617070726f76652063616c6c6572206973206e6f74206f7760008201527f6e6572206e6f7220617070726f76656420666f7220616c6c0000000000000000602082015250565b6000613a59603883613046565b9150613a64826139fd565b604082019050919050565b60006020820190508181036000830152613a8881613a4c565b9050919050565b7f596f7520646f206e6f74206f776e2074686973204e4654000000000000000000600082015250565b6000613ac5601783613046565b9150613ad082613a8f565b602082019050919050565b60006020820190508181036000830152613af481613ab8565b9050919050565b7f4974656d20616c7265616479206f6e2073616c65000000000000000000000000600082015250565b6000613b31601483613046565b9150613b3c82613afb565b602082019050919050565b60006020820190508181036000830152613b6081613b24565b9050919050565b7f5072696365206d75737420746f20657175616c20746f206c697374696e67207060008201527f7269636500000000000000000000000000000000000000000000000000000000602082015250565b6000613bc3602483613046565b9150613bce82613b67565b604082019050919050565b60006020820190508181036000830152613bf281613bb6565b9050919050565b7f4552433732313a207472616e736665722063616c6c6572206973206e6f74206f60008201527f776e6572206e6f7220617070726f766564000000000000000000000000000000602082015250565b6000613c55603183613046565b9150613c6082613bf9565b604082019050919050565b60006020820190508181036000830152613c8481613c48565b9050919050565b7f596f7520616c7265616479206f776e2074686973204e46540000000000000000600082015250565b6000613cc1601883613046565b9150613ccc82613c8b565b602082019050919050565b60006020820190508181036000830152613cf081613cb4565b9050919050565b7f506c65617365207375626d6974207468652061736b696e672070726963650000600082015250565b6000613d2d601e83613046565b9150613d3882613cf7565b602082019050919050565b60006020820190508181036000830152613d5c81613d20565b9050919050565b7f496e646578206973206f7574206f6620626f756e647300000000000000000000600082015250565b6000613d99601683613046565b9150613da482613d63565b602082019050919050565b60006020820190508181036000830152613dc881613d8c565b9050919050565b7f4e487b7100000000000000000000000000000000000000000000000000000000600052603260045260246000fd5b7f4e487b7100000000000000000000000000000000000000000000000000000000600052601160045260246000fd5b6000613e38826130f6565b9150613e43836130f6565b9250827fffffffffffffffffffffffffffffffffffffffffffffffffffffffffffffffff03821115613e7857613e77613dfe565b5b828201905092915050565b6000613e8e826130f6565b91507fffffffffffffffffffffffffffffffffffffffffffffffffffffffffffffffff821415613ec157613ec0613dfe565b5b600182019050919050565b600081905092915050565b6000613ee28261303b565b613eec8185613ecc565b9350613efc818560208601613057565b80840191505092915050565b6000613f148284613ed7565b915081905092915050565b7f4552433732313a206f776e657220717565727920666f72206e6f6e657869737460008201527f656e7420746f6b656e0000000000000000000000000000000000000000000000602082015250565b6000613f7b602983613046565b9150613f8682613f1f565b604082019050919050565b60006020820190508181036000830152613faa81613f6e565b9050919050565b7f4552433732313a2062616c616e636520717565727920666f7220746865207a6560008201527f726f206164647265737300000000000000000000000000000000000000000000602082015250565b600061400d602a83613046565b915061401882613fb1565b604082019050919050565b6000602082019050818103600083015261403c81614000565b9050919050565b7f4f776e61626c653a2063616c6c6572206973206e6f7420746865206f776e6572600082015250565b6000614079602083613046565b915061408482614043565b602082019050919050565b600060208201905081810360008301526140a88161406c565b9050919050565b7f5072696365206d7573742062652061746c656173742031207765690000000000600082015250565b60006140e5601b83613046565b91506140f0826140af565b602082019050919050565b60006020820190508181036000830152614114816140d8565b9050919050565b7f746f6b656e2055524920616c7265616479206578697374730000000000000000600082015250565b6000614151601883613046565b915061415c8261411b565b602082019050919050565b6000602082019050818103600083015261418081614144565b9050919050565b7f5072696365206d75737420626520657175616c20746f206c697374696e67207060008201527f7269636500000000000000000000000000000000000000000000000000000000602082015250565b60006141e3602483613046565b91506141ee82614187565b604082019050919050565b60006020820190508181036000830152614212816141d6565b9050919050565b7f45524337323155524953746f726167653a2055524920717565727920666f722060008201527f6e6f6e6578697374656e7420746f6b656e000000000000000000000000000000602082015250565b6000614275603183613046565b915061428082614219565b604082019050919050565b600060208201905081810360008301526142a481614268565b9050919050565b60006142b78285613ed7565b91506142c38284613ed7565b91508190509392505050565b7f4f776e61626c653a206e6577206f776e657220697320746865207a65726f206160008201527f6464726573730000000000000000000000000000000000000000000000000000602082015250565b600061432b602683613046565b9150614336826142cf565b604082019050919050565b6000602082019050818103600083015261435a8161431e565b9050919050565b7f4552433732313a206f70657261746f7220717565727920666f72206e6f6e657860008201527f697374656e7420746f6b656e0000000000000000000000000000000000000000602082015250565b60006143bd602c83613046565b91506143c882614361565b604082019050919050565b600060208201905081810360008301526143ec816143b0565b9050919050565b7f4552433732313a207472616e736665722066726f6d20696e636f72726563742060008201527f6f776e6572000000000000000000000000000000000000000000000000000000602082015250565b600061444f602583613046565b915061445a826143f3565b604082019050919050565b6000602082019050818103600083015261447e81614442565b9050919050565b7f4552433732313a207472616e7366657220746f20746865207a65726f2061646460008201527f7265737300000000000000000000000000000000000000000000000000000000602082015250565b60006144e1602483613046565b91506144ec82614485565b604082019050919050565b60006020820190508181036000830152614510816144d4565b9050919050565b6000614522826130f6565b915061452d836130f6565b9250828210156145405761453f613dfe565b5b828203905092915050565b7f436f756e7465723a2064656372656d656e74206f766572666c6f770000000000600082015250565b6000614581601b83613046565b915061458c8261454b565b602082019050919050565b600060208201905081810360008301526145b081614574565b9050919050565b7f4552433732313a20617070726f766520746f2063616c6c657200000000000000600082015250565b60006145ed601983613046565b91506145f8826145b7565b602082019050919050565b6000602082019050818103600083015261461c816145e0565b9050919050565b7f4552433732313a207472616e7366657220746f206e6f6e20455243373231526560008201527f63656976657220696d706c656d656e7465720000000000000000000000000000602082015250565b600061467f603283613046565b915061468a82614623565b604082019050919050565b600060208201905081810360008301526146ae81614672565b9050919050565b7f45524337323155524953746f726167653a2055524920736574206f66206e6f6e60008201527f6578697374656e7420746f6b656e000000000000000000000000000000000000602082015250565b6000614711602e83613046565b915061471c826146b5565b604082019050919050565b6000602082019050818103600083015261474081614704565b9050919050565b600060808201905061475c6000830187613221565b6147696020830186613221565b614776604083018561318b565b6147836060830184613011565b95945050505050565b7f4552433732314d657461646174613a2055524920717565727920666f72206e6f60008201527f6e6578697374656e7420746f6b656e0000000000000000000000000000000000602082015250565b60006147e8602f83613046565b91506147f38261478c565b604082019050919050565b60006020820190508181036000830152614817816147db565b9050919050565b600081519050919050565b600082825260208201905092915050565b60006148458261481e565b61484f8185614829565b935061485f818560208601613057565b6148688161308a565b840191505092915050565b6000608082019050614888600083018761318b565b614895602083018661318b565b6148a26040830185613221565b81810360608301526148b4818461483a565b905095945050505050565b6000815190506148ce81612fac565b92915050565b6000602082840312156148ea576148e9612f76565b5b60006148f8848285016148bf565b91505092915050565b7f4e487b7100000000000000000000000000000000000000000000000000000000600052601260045260246000fd5b600061493b826130f6565b9150614946836130f6565b92508261495657614955614901565b5b828204905092915050565b600061496c826130f6565b9150614977836130f6565b92508261498757614986614901565b5b828206905092915050565b7f4e487b7100000000000000000000000000000000000000000000000000000000600052603160045260246000fd5b7f4552433732313a206d696e7420746f20746865207a65726f2061646472657373600082015250565b60006149f7602083613046565b9150614a02826149c1565b602082019050919050565b60006020820190508181036000830152614a26816149ea565b9050919050565b7f4552433732313a20746f6b656e20616c7265616479206d696e74656400000000600082015250565b6000614a63601c83613046565b9150614a6e82614a2d565b602082019050919050565b60006020820190508181036000830152614a9281614a56565b905091905056fea26469706673582212208400793ed307936dce30e076d6307e1c6bcd9c00acdff36b21e36eece667c9b264736f6c634300080a0033",
  "immutableReferences": {},
  "source": "// SPDX-License-Identifier: MIT\npragma solidity >=0.4.22 <0.9.0;\n\nimport \"@openzeppelin/contracts/token/ERC721/extensions/ERC721URIStorage.sol\";\nimport \"@openzeppelin/contracts/utils/Counters.sol\";\nimport \"@openzeppelin/contracts/access/Ownable.sol\";\n\ncontract NftMarket is ERC721URIStorage, Ownable {\n    using Counters for Counters.Counter;\n\n    struct NftItem {\n        uint256 tokenId;\n        uint256 price;\n        address creator;\n        bool isListed;\n    }\n\n    uint256 public listingPrice = 0.025 ether;\n\n    Counters.Counter private _listedItems;\n    Counters.Counter private _tokenIds;\n\n    //all tokenids in the array\n\n    mapping(string => bool) private _usedTokenURIs;\n    mapping(uint256 => NftItem) private _idToNftItem;\n\n    mapping(address => mapping(uint256 => uint256)) private _ownedTokens;\n    mapping(uint256 => uint256) private _idToOwnedIndex;\n\n    uint256[] private _allNfts;\n    mapping(uint256 => uint256) private _idToNftIndex;\n\n    event NftItemCreated(\n        uint256 tokenId,\n        uint256 price,\n        address creator,\n        bool isListed\n    );\n\n    constructor() ERC721(\"Shih-VerseNFT\", \"SHIHNFT\") {}\n\n    function setListingPrice(uint256 newPrice) external onlyOwner {\n        require(newPrice > 0, \"Price must be atleast 1 wei\");\n        listingPrice = newPrice;\n    }\n\n    function getNftItem(uint256 tokenId) public view returns (NftItem memory) {\n        return _idToNftItem[tokenId];\n    }\n\n    function listedItemsCount() public view returns (uint256) {\n        return _listedItems.current();\n    }\n\n    function tokenURIExists(string memory tokenURI) public view returns (bool) {\n        return _usedTokenURIs[tokenURI] == true;\n    }\n\n    function totalSupply() public view returns (uint256) {\n        return _allNfts.length;\n    }\n\n    function tokenByIndex(uint256 index) public view returns (uint256) {\n        require(index < totalSupply(), \"Index is out of bounds\");\n        return _allNfts[index];\n    }\n\n    function tokenOfOwnerByIndex(address owner, uint256 index)\n        public\n        view\n        returns (uint256)\n    {\n        require(index < ERC721.balanceOf(owner), \"Index is out of bounds\");\n        return _ownedTokens[owner][index];\n    }\n\n    function getAllNftsOnSale() public view returns (NftItem[] memory) {\n        uint256 allItemsCount = totalSupply();\n        uint256 currentIndex = 0;\n        NftItem[] memory items = new NftItem[](_listedItems.current());\n\n        for (uint256 i = 0; i < allItemsCount; i++) {\n            uint256 tokenId = tokenByIndex(i);\n            NftItem storage item = _idToNftItem[tokenId];\n\n            if (item.isListed == true) {\n                items[currentIndex] = item;\n                currentIndex += 1;\n            }\n        }\n\n        return items;\n    }\n\n    function getOwnedNfts() public view returns (NftItem[] memory) {\n        uint256 ownedItemsCount = ERC721.balanceOf(msg.sender);\n        NftItem[] memory items = new NftItem[](ownedItemsCount);\n\n        for (uint256 i = 0; i < ownedItemsCount; i++) {\n            uint256 tokenId = tokenOfOwnerByIndex(msg.sender, i);\n            NftItem storage item = _idToNftItem[tokenId];\n            items[i] = item;\n        }\n\n        return items;\n    }\n\n    function mintToken(string memory tokenURI, uint256 price)\n        public\n        payable\n        returns (uint256)\n    {\n        require(!tokenURIExists(tokenURI), \"token URI already exists\");\n        require(\n            msg.value == listingPrice,\n            \"Price must be equal to listing price\"\n        );\n\n        _tokenIds.increment();\n        _listedItems.increment();\n\n        uint256 newTokenId = _tokenIds.current();\n\n        _safeMint(msg.sender, newTokenId);\n        _setTokenURI(newTokenId, tokenURI);\n        _createNftItem(newTokenId, price);\n        _usedTokenURIs[tokenURI] = true;\n\n        return newTokenId;\n    }\n\n    function buyNft(uint256 tokenId) public payable {\n        uint256 price = _idToNftItem[tokenId].price;\n        address owner = ERC721.ownerOf(tokenId);\n\n        require(msg.sender != owner, \"You already own this NFT\");\n        require(msg.value == price, \"Please submit the asking price\");\n\n        _idToNftItem[tokenId].isListed = false;\n        _listedItems.decrement();\n\n        _transfer(owner, msg.sender, tokenId);\n        payable(owner).transfer(msg.value);\n    }\n\n    function placeNftOnSale(uint256 tokenId, uint256 newPrice) public payable {\n        require(\n            ERC721.ownerOf(tokenId) == msg.sender,\n            \"You do not own this NFT\"\n        );\n        require(\n            _idToNftItem[tokenId].isListed == false,\n            \"Item already on sale\"\n        );\n        require(\n            msg.value == listingPrice,\n            \"Price must to equal to listing price\"\n        );\n\n        _idToNftItem[tokenId].isListed = true;\n        _idToNftItem[tokenId].price = newPrice;\n        _listedItems.increment();\n    }\n\n    function _createNftItem(uint256 tokenId, uint256 price) private {\n        require(price > 0, \"Price must be atleast 1 wei\");\n\n        _idToNftItem[tokenId] = NftItem(tokenId, price, msg.sender, true);\n\n        emit NftItemCreated(tokenId, price, msg.sender, true);\n    }\n\n    function _beforeTokenTransfer(\n        address from,\n        address to,\n        uint256 tokenId\n    ) internal virtual override {\n        super._beforeTokenTransfer(from, to, tokenId);\n        // minting token\n        if (from == address(0)) {\n            _addTokenToAllTokensEnumeration(tokenId);\n        } else if (from != to) {\n            _removeTokenFromOwnerEnumeration(from, tokenId);\n        }\n\n        if (to == address(0)) {\n            _removeTokenFromAllTokensEnumeration(tokenId);\n        } else if (to != from) {\n            _addTokenToOwnerEnumeration(to, tokenId);\n        }\n    }\n\n    function _addTokenToAllTokensEnumeration(uint256 tokenId) private {\n        _idToNftIndex[tokenId] = _allNfts.length;\n        _allNfts.push(tokenId);\n    }\n\n    function _addTokenToOwnerEnumeration(address to, uint256 tokenId) private {\n        uint256 length = ERC721.balanceOf(to);\n\n        _ownedTokens[to][length] = tokenId;\n        _idToOwnedIndex[tokenId] = length;\n    }\n\n    function _removeTokenFromOwnerEnumeration(address from, uint256 tokenId)\n        private\n    {\n        uint256 lastTokenIndex = ERC721.balanceOf(from) - 1;\n        uint256 tokenIndex = _idToOwnedIndex[tokenId];\n\n        if (tokenIndex != lastTokenIndex) {\n            uint256 lastTokenId = _ownedTokens[from][lastTokenIndex];\n\n            _ownedTokens[from][tokenIndex] = lastTokenIndex;\n            _idToOwnedIndex[lastTokenId] = tokenIndex;\n        }\n\n        delete _idToOwnedIndex[tokenId];\n        delete _ownedTokens[from][lastTokenIndex];\n    }\n\n    function _removeTokenFromAllTokensEnumeration(uint256 tokenId) private {\n        uint256 lastTokenIndex = _allNfts.length - 1;\n        uint256 tokenIndex = _idToNftIndex[tokenId];\n        uint256 lastTokenId = _allNfts[lastTokenIndex];\n\n        _allNfts[tokenIndex] = lastTokenId;\n        _idToNftIndex[lastTokenId] = tokenIndex;\n\n        delete _idToNftIndex[tokenId];\n        _allNfts.pop();\n    }\n}\n",
  "sourcePath": "/home/karlito/projects/shih-verse-new/shihverse-nft-3/contracts/NftMarket.sol",
  "compiler": {
    "name": "solc",
    "version": "0.8.10+commit.fc410830.Emscripten.clang"
  },
  "schemaVersion": "3.4.4",
  "updatedAt": "2022-06-21T12:35:05.734Z",
  "networkType": "ethereum",
  "devdoc": {
    "kind": "dev",
    "methods": {
      "approve(address,uint256)": {
        "details": "See {IERC721-approve}."
      },
      "balanceOf(address)": {
        "details": "See {IERC721-balanceOf}."
      },
      "getApproved(uint256)": {
        "details": "See {IERC721-getApproved}."
      },
      "isApprovedForAll(address,address)": {
        "details": "See {IERC721-isApprovedForAll}."
      },
      "name()": {
        "details": "See {IERC721Metadata-name}."
      },
      "owner()": {
        "details": "Returns the address of the current owner."
      },
      "ownerOf(uint256)": {
        "details": "See {IERC721-ownerOf}."
      },
      "renounceOwnership()": {
        "details": "Leaves the contract without owner. It will not be possible to call `onlyOwner` functions anymore. Can only be called by the current owner. NOTE: Renouncing ownership will leave the contract without an owner, thereby removing any functionality that is only available to the owner."
      },
      "safeTransferFrom(address,address,uint256)": {
        "details": "See {IERC721-safeTransferFrom}."
      },
      "safeTransferFrom(address,address,uint256,bytes)": {
        "details": "See {IERC721-safeTransferFrom}."
      },
      "setApprovalForAll(address,bool)": {
        "details": "See {IERC721-setApprovalForAll}."
      },
      "supportsInterface(bytes4)": {
        "details": "See {IERC165-supportsInterface}."
      },
      "symbol()": {
        "details": "See {IERC721Metadata-symbol}."
      },
      "tokenURI(uint256)": {
        "details": "See {IERC721Metadata-tokenURI}."
      },
      "transferFrom(address,address,uint256)": {
        "details": "See {IERC721-transferFrom}."
      },
      "transferOwnership(address)": {
        "details": "Transfers ownership of the contract to a new account (`newOwner`). Can only be called by the current owner."
      }
    },
    "version": 1
  },
  "userdoc": {
    "kind": "user",
    "methods": {},
    "version": 1
  }
}